{
  "contractName": "BlockHeads",
  "abi": [
    {
      "inputs": [
        {
          "internalType": "string",
          "name": "baseURI",
          "type": "string"
        }
      ],
      "stateMutability": "nonpayable",
      "type": "constructor"
    },
    {
      "anonymous": false,
      "inputs": [
        {
          "indexed": true,
          "internalType": "address",
          "name": "owner",
          "type": "address"
        },
        {
          "indexed": true,
          "internalType": "address",
          "name": "approved",
          "type": "address"
        },
        {
          "indexed": true,
          "internalType": "uint256",
          "name": "tokenId",
          "type": "uint256"
        }
      ],
      "name": "Approval",
      "type": "event"
    },
    {
      "anonymous": false,
      "inputs": [
        {
          "indexed": true,
          "internalType": "address",
          "name": "owner",
          "type": "address"
        },
        {
          "indexed": true,
          "internalType": "address",
          "name": "operator",
          "type": "address"
        },
        {
          "indexed": false,
          "internalType": "bool",
          "name": "approved",
          "type": "bool"
        }
      ],
      "name": "ApprovalForAll",
      "type": "event"
    },
    {
      "anonymous": false,
      "inputs": [
        {
          "indexed": true,
          "internalType": "address",
          "name": "previousOwner",
          "type": "address"
        },
        {
          "indexed": true,
          "internalType": "address",
          "name": "newOwner",
          "type": "address"
        }
      ],
      "name": "OwnershipTransferred",
      "type": "event"
    },
    {
      "anonymous": false,
      "inputs": [
        {
          "indexed": true,
          "internalType": "address",
          "name": "from",
          "type": "address"
        },
        {
          "indexed": true,
          "internalType": "address",
          "name": "to",
          "type": "address"
        },
        {
          "indexed": true,
          "internalType": "uint256",
          "name": "tokenId",
          "type": "uint256"
        }
      ],
      "name": "Transfer",
      "type": "event"
    },
    {
      "inputs": [],
      "name": "MAX_ELEMENTS",
      "outputs": [
        {
          "internalType": "uint256",
          "name": "",
          "type": "uint256"
        }
      ],
      "stateMutability": "view",
      "type": "function",
      "constant": true
    },
    {
      "inputs": [],
      "name": "META_REVEAL",
      "outputs": [
        {
          "internalType": "bool",
          "name": "",
          "type": "bool"
        }
      ],
      "stateMutability": "view",
      "type": "function",
      "constant": true
    },
    {
      "inputs": [],
      "name": "PRICE",
      "outputs": [
        {
          "internalType": "uint256",
          "name": "",
          "type": "uint256"
        }
      ],
      "stateMutability": "view",
      "type": "function",
      "constant": true
    },
    {
      "inputs": [
        {
          "internalType": "address",
          "name": "to",
          "type": "address"
        },
        {
          "internalType": "uint256",
          "name": "tokenId",
          "type": "uint256"
        }
      ],
      "name": "approve",
      "outputs": [],
      "stateMutability": "nonpayable",
      "type": "function"
    },
    {
      "inputs": [
        {
          "internalType": "address",
          "name": "owner",
          "type": "address"
        }
      ],
      "name": "balanceOf",
      "outputs": [
        {
          "internalType": "uint256",
          "name": "",
          "type": "uint256"
        }
      ],
      "stateMutability": "view",
      "type": "function",
      "constant": true
    },
    {
      "inputs": [],
      "name": "baseTokenURI",
      "outputs": [
        {
          "internalType": "string",
          "name": "",
          "type": "string"
        }
      ],
      "stateMutability": "view",
      "type": "function",
      "constant": true
    },
    {
      "inputs": [
        {
          "internalType": "uint256",
          "name": "tokenId",
          "type": "uint256"
        }
      ],
      "name": "getApproved",
      "outputs": [
        {
          "internalType": "address",
          "name": "",
          "type": "address"
        }
      ],
      "stateMutability": "view",
      "type": "function",
      "constant": true
    },
    {
      "inputs": [],
      "name": "isAirdropStarted",
      "outputs": [
        {
          "internalType": "bool",
          "name": "",
          "type": "bool"
        }
      ],
      "stateMutability": "view",
      "type": "function",
      "constant": true
    },
    {
      "inputs": [
        {
          "internalType": "address",
          "name": "owner",
          "type": "address"
        },
        {
          "internalType": "address",
          "name": "operator",
          "type": "address"
        }
      ],
      "name": "isApprovedForAll",
      "outputs": [
        {
          "internalType": "bool",
          "name": "",
          "type": "bool"
        }
      ],
      "stateMutability": "view",
      "type": "function",
      "constant": true
    },
    {
      "inputs": [],
      "name": "isPresaleStarted",
      "outputs": [
        {
          "internalType": "bool",
          "name": "",
          "type": "bool"
        }
      ],
      "stateMutability": "view",
      "type": "function",
      "constant": true
    },
    {
      "inputs": [],
      "name": "isPublicsaleStarted",
      "outputs": [
        {
          "internalType": "bool",
          "name": "",
          "type": "bool"
        }
      ],
      "stateMutability": "view",
      "type": "function",
      "constant": true
    },
    {
      "inputs": [],
      "name": "mintLimit",
      "outputs": [
        {
          "internalType": "uint256",
          "name": "",
          "type": "uint256"
        }
      ],
      "stateMutability": "view",
      "type": "function",
      "constant": true
    },
    {
      "inputs": [
        {
          "internalType": "address",
          "name": "",
          "type": "address"
        }
      ],
      "name": "mintListPurchases",
      "outputs": [
        {
          "internalType": "uint256",
          "name": "",
          "type": "uint256"
        }
      ],
      "stateMutability": "view",
      "type": "function",
      "constant": true
    },
    {
      "inputs": [],
      "name": "name",
      "outputs": [
        {
          "internalType": "string",
          "name": "",
          "type": "string"
        }
      ],
      "stateMutability": "view",
      "type": "function",
      "constant": true
    },
    {
      "inputs": [],
      "name": "owner",
      "outputs": [
        {
          "internalType": "address",
          "name": "",
          "type": "address"
        }
      ],
      "stateMutability": "view",
      "type": "function",
      "constant": true
    },
    {
      "inputs": [
        {
          "internalType": "uint256",
          "name": "tokenId",
          "type": "uint256"
        }
      ],
      "name": "ownerOf",
      "outputs": [
        {
          "internalType": "address",
          "name": "",
          "type": "address"
        }
      ],
      "stateMutability": "view",
      "type": "function",
      "constant": true
    },
    {
      "inputs": [
        {
          "internalType": "uint256",
          "name": "tokenId",
          "type": "uint256"
        }
      ],
      "name": "rawOwnerOf",
      "outputs": [
        {
          "internalType": "address",
          "name": "",
          "type": "address"
        }
      ],
      "stateMutability": "view",
      "type": "function",
      "constant": true
    },
    {
      "inputs": [],
      "name": "renounceOwnership",
      "outputs": [],
      "stateMutability": "nonpayable",
      "type": "function"
    },
    {
      "inputs": [
        {
          "internalType": "address",
          "name": "from",
          "type": "address"
        },
        {
          "internalType": "address",
          "name": "to",
          "type": "address"
        },
        {
          "internalType": "uint256",
          "name": "tokenId",
          "type": "uint256"
        }
      ],
      "name": "safeTransferFrom",
      "outputs": [],
      "stateMutability": "nonpayable",
      "type": "function"
    },
    {
      "inputs": [
        {
          "internalType": "address",
          "name": "from",
          "type": "address"
        },
        {
          "internalType": "address",
          "name": "to",
          "type": "address"
        },
        {
          "internalType": "uint256",
          "name": "tokenId",
          "type": "uint256"
        },
        {
          "internalType": "bytes",
          "name": "_data",
          "type": "bytes"
        }
      ],
      "name": "safeTransferFrom",
      "outputs": [],
      "stateMutability": "nonpayable",
      "type": "function"
    },
    {
      "inputs": [],
      "name": "saleTransLimit",
      "outputs": [
        {
          "internalType": "uint256",
          "name": "",
          "type": "uint256"
        }
      ],
      "stateMutability": "view",
      "type": "function",
      "constant": true
    },
    {
      "inputs": [],
      "name": "sampleTokenURI",
      "outputs": [
        {
          "internalType": "string",
          "name": "",
          "type": "string"
        }
      ],
      "stateMutability": "view",
      "type": "function",
      "constant": true
    },
    {
      "inputs": [
        {
          "internalType": "address",
          "name": "operator",
          "type": "address"
        },
        {
          "internalType": "bool",
          "name": "approved",
          "type": "bool"
        }
      ],
      "name": "setApprovalForAll",
      "outputs": [],
      "stateMutability": "nonpayable",
      "type": "function"
    },
    {
      "inputs": [
        {
          "internalType": "bytes4",
          "name": "interfaceId",
          "type": "bytes4"
        }
      ],
      "name": "supportsInterface",
      "outputs": [
        {
          "internalType": "bool",
          "name": "",
          "type": "bool"
        }
      ],
      "stateMutability": "view",
      "type": "function",
      "constant": true
    },
    {
      "inputs": [],
      "name": "symbol",
      "outputs": [
        {
          "internalType": "string",
          "name": "",
          "type": "string"
        }
      ],
      "stateMutability": "view",
      "type": "function",
      "constant": true
    },
    {
      "inputs": [
        {
          "internalType": "uint256",
          "name": "index",
          "type": "uint256"
        }
      ],
      "name": "tokenByIndex",
      "outputs": [
        {
          "internalType": "uint256",
          "name": "",
          "type": "uint256"
        }
      ],
      "stateMutability": "view",
      "type": "function",
      "constant": true
    },
    {
      "inputs": [
        {
          "internalType": "address",
          "name": "owner",
          "type": "address"
        },
        {
          "internalType": "uint256",
          "name": "index",
          "type": "uint256"
        }
      ],
      "name": "tokenOfOwnerByIndex",
      "outputs": [
        {
          "internalType": "uint256",
          "name": "",
          "type": "uint256"
        }
      ],
      "stateMutability": "view",
      "type": "function",
      "constant": true
    },
    {
      "inputs": [],
      "name": "totalSupply",
      "outputs": [
        {
          "internalType": "uint256",
          "name": "",
          "type": "uint256"
        }
      ],
      "stateMutability": "view",
      "type": "function",
      "constant": true
    },
    {
      "inputs": [
        {
          "internalType": "address",
          "name": "from",
          "type": "address"
        },
        {
          "internalType": "address",
          "name": "to",
          "type": "address"
        },
        {
          "internalType": "uint256",
          "name": "tokenId",
          "type": "uint256"
        }
      ],
      "name": "transferFrom",
      "outputs": [],
      "stateMutability": "nonpayable",
      "type": "function"
    },
    {
      "inputs": [
        {
          "internalType": "address",
          "name": "newOwner",
          "type": "address"
        }
      ],
      "name": "transferOwnership",
      "outputs": [],
      "stateMutability": "nonpayable",
      "type": "function"
    },
    {
      "inputs": [],
      "name": "totalToken",
      "outputs": [
        {
          "internalType": "uint256",
          "name": "",
          "type": "uint256"
        }
      ],
      "stateMutability": "view",
      "type": "function",
      "constant": true
    },
    {
      "inputs": [
        {
          "internalType": "uint256",
          "name": "tokenId",
          "type": "uint256"
        }
      ],
      "name": "tokenURI",
      "outputs": [
        {
          "internalType": "string",
          "name": "",
          "type": "string"
        }
      ],
      "stateMutability": "view",
      "type": "function",
      "constant": true
    },
    {
      "inputs": [
        {
          "internalType": "uint256",
          "name": "_tokenAmount",
          "type": "uint256"
        },
        {
          "internalType": "uint256",
          "name": "_timestamp",
          "type": "uint256"
        },
        {
          "internalType": "bytes",
          "name": "_signature",
          "type": "bytes"
        }
      ],
      "name": "mint",
      "outputs": [],
      "stateMutability": "payable",
      "type": "function",
      "payable": true
    },
    {
      "inputs": [
        {
          "internalType": "uint256",
          "name": "_tokenAmount",
          "type": "uint256"
        },
        {
          "internalType": "uint256",
          "name": "_timestamp",
          "type": "uint256"
        },
        {
          "internalType": "bytes",
          "name": "_signature",
          "type": "bytes"
        }
      ],
      "name": "claim",
      "outputs": [],
      "stateMutability": "nonpayable",
      "type": "function"
    },
    {
      "inputs": [
        {
          "internalType": "address",
          "name": "wallet",
          "type": "address"
        },
        {
          "internalType": "uint256",
          "name": "_tokenAmount",
          "type": "uint256"
        },
        {
          "internalType": "uint256",
          "name": "_timestamp",
          "type": "uint256"
        },
        {
          "internalType": "bytes",
          "name": "_signature",
          "type": "bytes"
        }
      ],
      "name": "signatureWallet",
      "outputs": [
        {
          "internalType": "address",
          "name": "",
          "type": "address"
        }
      ],
      "stateMutability": "pure",
      "type": "function",
      "constant": true
    },
    {
      "inputs": [
        {
          "internalType": "uint256",
          "name": "_count",
          "type": "uint256"
        }
      ],
      "name": "price",
      "outputs": [
        {
          "internalType": "uint256",
          "name": "",
          "type": "uint256"
        }
      ],
      "stateMutability": "view",
      "type": "function",
      "constant": true
    },
    {
      "inputs": [
        {
          "internalType": "address",
          "name": "_owner",
          "type": "address"
        }
      ],
      "name": "walletOfOwner",
      "outputs": [
        {
          "internalType": "uint256[]",
          "name": "",
          "type": "uint256[]"
        }
      ],
      "stateMutability": "view",
      "type": "function",
      "constant": true
    },
    {
      "inputs": [
        {
          "internalType": "string",
          "name": "baseURI",
          "type": "string"
        }
      ],
      "name": "setBaseURI",
      "outputs": [],
      "stateMutability": "nonpayable",
      "type": "function"
    },
    {
      "inputs": [
        {
          "internalType": "string",
          "name": "sampleURI",
          "type": "string"
        }
      ],
      "name": "setSampleURI",
      "outputs": [],
      "stateMutability": "nonpayable",
      "type": "function"
    },
    {
      "inputs": [
        {
          "internalType": "uint256",
          "name": "_price",
          "type": "uint256"
        }
      ],
      "name": "setPrice",
      "outputs": [],
      "stateMutability": "nonpayable",
      "type": "function"
    },
    {
      "inputs": [],
      "name": "toggleReveal",
      "outputs": [],
      "stateMutability": "nonpayable",
      "type": "function"
    },
    {
      "inputs": [],
      "name": "togglePresale",
      "outputs": [],
      "stateMutability": "nonpayable",
      "type": "function"
    },
    {
      "inputs": [],
      "name": "togglePublicSale",
      "outputs": [],
      "stateMutability": "nonpayable",
      "type": "function"
    },
    {
      "inputs": [],
      "name": "toggleAirdropStatus",
      "outputs": [],
      "stateMutability": "nonpayable",
      "type": "function"
    },
    {
      "inputs": [],
      "name": "withdraw",
      "outputs": [],
      "stateMutability": "nonpayable",
      "type": "function"
    },
    {
      "inputs": [
        {
          "internalType": "address[]",
          "name": "_addrs",
          "type": "address[]"
        },
        {
          "internalType": "uint256[]",
          "name": "_tokenAmounts",
          "type": "uint256[]"
        }
      ],
      "name": "giftMint",
      "outputs": [],
      "stateMutability": "nonpayable",
      "type": "function"
    }
  ],
  "bytecode": "0x608060405261270f600b55670214e8348c4f0000600c556014600d819055600e8190556012805460ff19166001179055805462ffffff191690553480156200004657600080fd5b506040516200368d3803806200368d833981016040819052620000699162000266565b604080518082018252600a80825269424c4f434b484541445360b01b602080840182815285518087019096529285528401528151919291620000ae91600091620001c0565b508051620000c4906001906020840190620001c0565b505050620000e1620000db620000f360201b60201c565b620000f7565b620000ec8162000149565b50620003c4565b3390565b600a80546001600160a01b038381166001600160a01b0319831681179093556040519116919082907f8be0079c531659141344cd1fd0a4f28419497f9722a3daafe3b4186f6b6457e090600090a35050565b62000153620000f3565b6001600160a01b031662000166620001b1565b6001600160a01b031614620001985760405162461bcd60e51b81526004016200018f906200033c565b60405180910390fd5b8051620001ad906011906020840190620001c0565b5050565b600a546001600160a01b031690565b828054620001ce9062000371565b90600052602060002090601f016020900481019282620001f257600085556200023d565b82601f106200020d57805160ff19168380011785556200023d565b828001600101855582156200023d579182015b828111156200023d57825182559160200191906001019062000220565b506200024b9291506200024f565b5090565b5b808211156200024b576000815560010162000250565b6000602080838503121562000279578182fd5b82516001600160401b038082111562000290578384fd5b818501915085601f830112620002a4578384fd5b815181811115620002b957620002b9620003ae565b604051601f8201601f19908116603f01168101908382118183101715620002e457620002e4620003ae565b816040528281528886848701011115620002fc578687fd5b8693505b828410156200031f578484018601518185018701529285019262000300565b828411156200033057868684830101525b98975050505050505050565b6020808252818101527f4f776e61626c653a2063616c6c6572206973206e6f7420746865206f776e6572604082015260600190565b6002810460018216806200038657607f821691505b60208210811415620003a857634e487b7160e01b600052602260045260246000fd5b50919050565b634e487b7160e01b600052604160045260246000fd5b6132b980620003d46000396000f3fe60806040526004361061027d5760003560e01c80636352211e1161014f578063996517cf116100c1578063d547cfb71161007a578063d547cfb7146106fb578063e222c7f914610710578063e985e9c514610725578063ef6d492714610745578063f23205681461075a578063f2fde38b1461077a5761027d565b8063996517cf1461065c578063a22cb46514610671578063b88d4fde14610691578063bc13a688146106b1578063beaf516c146106c6578063c87b56dd146106db5761027d565b806389ece9411161011357806389ece941146105c85780638d859f3e146105e85780638da5cb5b146105fd57806391b7f5ed1461061257806395d89b411461063257806398d6d8ed146106475761027d565b80636352211e146105335780636ea5d1781461055357806370a0823114610573578063715018a6146105935780637f81be69146105a85761027d565b806332cfa024116101f3578063438b6300116101ac578063438b63001461047c5780634f6ccce7146104a957806355f804b3146104c95780635b8ad429146104e95780635eddd157146104fe578063626be5671461051e5761027d565b806332cfa024146103e857806334393743146104085780633502a7161461041d5780633ccfd60b146104325780633f6195751461044757806342842e0e1461045c5761027d565b8063103c4b5311610245578063103c4b531461033c57806318160ddd1461035157806323b872dd1461037357806326a49e3714610393578063286d435f146103b35780632f745c59146103c85761027d565b806301ffc9a71461028257806306fdde03146102b8578063081812fc146102da57806308dc9f4214610307578063095ea7b31461031c575b600080fd5b34801561028e57600080fd5b506102a261029d366004612712565b61079a565b6040516102af9190612907565b60405180910390f35b3480156102c457600080fd5b506102cd6107c7565b6040516102af9190612930565b3480156102e657600080fd5b506102fa6102f5366004612790565b610859565b6040516102af9190612851565b61031a6103153660046127a8565b6108a5565b005b34801561032857600080fd5b5061031a6103373660046125e4565b610a51565b34801561034857600080fd5b506102cd610ae9565b34801561035d57600080fd5b50610366610b77565b6040516102af91906130b5565b34801561037f57600080fd5b5061031a61038e366004612509565b610b7d565b34801561039f57600080fd5b506103666103ae366004612790565b610bb5565b3480156103bf57600080fd5b50610366610bc5565b3480156103d457600080fd5b506103666103e33660046125e4565b610bcb565b3480156103f457600080fd5b506103666104033660046124bd565b610c1d565b34801561041457600080fd5b5061031a610c2f565b34801561042957600080fd5b50610366610c8b565b34801561043e57600080fd5b5061031a610c91565b34801561045357600080fd5b506102a2610d13565b34801561046857600080fd5b5061031a610477366004612509565b610d22565b34801561048857600080fd5b5061049c6104973660046124bd565b610d3d565b6040516102af91906128c3565b3480156104b557600080fd5b506103666104c4366004612790565b610dfb565b3480156104d557600080fd5b5061031a6104e436600461274a565b610e56565b3480156104f557600080fd5b5061031a610eac565b34801561050a57600080fd5b5061031a6105193660046127a8565b610eff565b34801561052a57600080fd5b50610366610fdd565b34801561053f57600080fd5b506102fa61054e366004612790565b610fee565b34801561055f57600080fd5b5061031a61056e366004612654565b611023565b34801561057f57600080fd5b5061036661058e3660046124bd565b611196565b34801561059f57600080fd5b5061031a6111da565b3480156105b457600080fd5b506102fa6105c3366004612790565b611225565b3480156105d457600080fd5b5061031a6105e336600461274a565b611240565b3480156105f457600080fd5b50610366611292565b34801561060957600080fd5b506102fa611298565b34801561061e57600080fd5b5061031a61062d366004612790565b6112a7565b34801561063e57600080fd5b506102cd6112eb565b34801561065357600080fd5b506102a26112fa565b34801561066857600080fd5b50610366611308565b34801561067d57600080fd5b5061031a61068c3660046125aa565b61130e565b34801561069d57600080fd5b5061031a6106ac366004612544565b6113dc565b3480156106bd57600080fd5b506102a261141b565b3480156106d257600080fd5b506102a2611424565b3480156106e757600080fd5b506102cd6106f6366004612790565b61142d565b34801561070757600080fd5b506102cd61154c565b34801561071c57600080fd5b5061031a611559565b34801561073157600080fd5b506102a26107403660046124d7565b6115b7565b34801561075157600080fd5b5061031a6115e5565b34801561076657600080fd5b506102fa61077536600461260d565b611638565b34801561078657600080fd5b5061031a6107953660046124bd565b611679565b60006001600160e01b0319821663780e9d6360e01b14806107bf57506107bf826116e7565b90505b919050565b6060600080546107d6906131a1565b80601f0160208091040260200160405190810160405280929190818152602001828054610802906131a1565b801561084f5780601f106108245761010080835404028352916020019161084f565b820191906000526020600020905b81548152906001019060200180831161083257829003601f168201915b5050505050905090565b600061086482611727565b6108895760405162461bcd60e51b815260040161088090612df5565b60405180910390fd5b506000908152600460205260409020546001600160a01b031690565b601454610100900460ff16806108c3575060145462010000900460ff165b6108df5760405162461bcd60e51b815260040161088090612f3e565b60145460ff16156109025760405162461bcd60e51b815260040161088090612ebf565b600061090c610fdd565b9050600d548411156109305760405162461bcd60e51b815260040161088090612bef565b600b5461093d8583613113565b111561095b5760405162461bcd60e51b815260040161088090612bef565b61096484610bb5565b3410156109835760405162461bcd60e51b815260040161088090612f75565b600e54336000908152600f60205260409020546109a1908690613113565b11156109bf5760405162461bcd60e51b8152600401610880906129b1565b60006109c9611744565b905060006109d982878787611638565b90506109e3611298565b6001600160a01b0316816001600160a01b031614610a135760405162461bcd60e51b815260040161088090612c5e565b60015b868160ff1611610a4857610a3683610a3160ff841687613113565b611748565b80610a40816131f7565b915050610a16565b50505050505050565b6000610a5c82610fee565b9050806001600160a01b0316836001600160a01b03161415610a905760405162461bcd60e51b815260040161088090612fa0565b806001600160a01b0316610aa2611744565b6001600160a01b03161480610abe5750610abe81610740611744565b610ada5760405162461bcd60e51b815260040161088090612c8e565b610ae48383611785565b505050565b60138054610af6906131a1565b80601f0160208091040260200160405190810160405280929190818152602001828054610b22906131a1565b8015610b6f5780601f10610b4457610100808354040283529160200191610b6f565b820191906000526020600020905b815481529060010190602001808311610b5257829003601f168201915b505050505081565b60085490565b610b8e610b88611744565b826117f3565b610baa5760405162461bcd60e51b815260040161088090613018565b610ae4838383611870565b600c546000906107bf908361199d565b600d5481565b6000610bd683611196565b8210610bf45760405162461bcd60e51b8152600401610880906129e8565b506001600160a01b03919091166000908152600660209081526040808320938352929052205490565b600f6020526000908152604090205481565b610c37611744565b6001600160a01b0316610c48611298565b6001600160a01b031614610c6e5760405162461bcd60e51b815260040161088090612e41565b6014805461ff001981166101009182900460ff1615909102179055565b600b5481565b610c99611744565b6001600160a01b0316610caa611298565b6001600160a01b031614610cd05760405162461bcd60e51b815260040161088090612e41565b610cd8611298565b6001600160a01b03166108fc479081150290604051600060405180830381858888f19350505050158015610d10573d6000803e3d6000fd5b50565b60145462010000900460ff1681565b610ae4838383604051806020016040528060008152506113dc565b60606000610d4a83611196565b905060008167ffffffffffffffff811115610d7557634e487b7160e01b600052604160045260246000fd5b604051908082528060200260200182016040528015610d9e578160200160208202803683370190505b50905060005b82811015610df357610db68582610bcb565b828281518110610dd657634e487b7160e01b600052603260045260246000fd5b602090810291909101015280610deb816131dc565b915050610da4565b509392505050565b6000610e05610b77565b8210610e235760405162461bcd60e51b815260040161088090613069565b60088281548110610e4457634e487b7160e01b600052603260045260246000fd5b90600052602060002001549050919050565b610e5e611744565b6001600160a01b0316610e6f611298565b6001600160a01b031614610e955760405162461bcd60e51b815260040161088090612e41565b8051610ea890601190602084019061232a565b5050565b610eb4611744565b6001600160a01b0316610ec5611298565b6001600160a01b031614610eeb5760405162461bcd60e51b815260040161088090612e41565b6012805460ff19811660ff90911615179055565b60145460ff16610f215760405162461bcd60e51b815260040161088090612b02565b6000610f2b610fdd565b600b54909150610f3b8583613113565b1115610f595760405162461bcd60e51b815260040161088090612bef565b6000610f63611744565b90506000610f7382878787611638565b9050610f7d611298565b6001600160a01b0316816001600160a01b031614610fad5760405162461bcd60e51b815260040161088090612fe1565b60015b868160ff1611610a4857610fcb83610a3160ff841687613113565b80610fd5816131f7565b915050610fb0565b6000610fe960106119a9565b905090565b6000818152600260205260408120546001600160a01b0316806107bf5760405162461bcd60e51b815260040161088090612d35565b61102b611744565b6001600160a01b031661103c611298565b6001600160a01b0316146110625760405162461bcd60e51b815260040161088090612e41565b60008061106d610fdd565b905060005b84518110156110c25783818151811061109b57634e487b7160e01b600052603260045260246000fd5b6020026020010151836110ae9190613113565b9250806110ba816131dc565b915050611072565b50600b546110d08383613113565b11156110ee5760405162461bcd60e51b815260040161088090612bef565b60005b845181101561118f5760005b84828151811061111d57634e487b7160e01b600052603260045260246000fd5b602002602001015181101561117c5782611136816131dc565b93505061116a86838151811061115c57634e487b7160e01b600052603260045260246000fd5b602002602001015184611748565b80611174816131dc565b9150506110fd565b5080611187816131dc565b9150506110f1565b5050505050565b60006001600160a01b0382166111be5760405162461bcd60e51b815260040161088090612ceb565b506001600160a01b031660009081526003602052604090205490565b6111e2611744565b6001600160a01b03166111f3611298565b6001600160a01b0316146112195760405162461bcd60e51b815260040161088090612e41565b61122360006119ad565b565b6000908152600260205260409020546001600160a01b031690565b611248611744565b6001600160a01b0316611259611298565b6001600160a01b03161461127f5760405162461bcd60e51b815260040161088090612e41565b8051610ea890601390602084019061232a565b600c5481565b600a546001600160a01b031690565b6112af611744565b6001600160a01b03166112c0611298565b6001600160a01b0316146112e65760405162461bcd60e51b815260040161088090612e41565b600c55565b6060600180546107d6906131a1565b601454610100900460ff1681565b600e5481565b611316611744565b6001600160a01b0316826001600160a01b031614156113475760405162461bcd60e51b815260040161088090612b76565b8060056000611354611744565b6001600160a01b03908116825260208083019390935260409182016000908120918716808252919093529120805460ff191692151592909217909155611398611744565b6001600160a01b03167f17307eab39ab6107e8899845ad3d59bd9653f200f220920489ca2b5937696c31836040516113d09190612907565b60405180910390a35050565b6113ed6113e7611744565b836117f3565b6114095760405162461bcd60e51b815260040161088090613018565b611415848484846119ff565b50505050565b60125460ff1681565b60145460ff1681565b606061143882611727565b6114545760405162461bcd60e51b815260040161088090612eef565b60125460ff166114f0576013805461146b906131a1565b80601f0160208091040260200160405190810160405280929190818152602001828054611497906131a1565b80156114e45780601f106114b9576101008083540402835291602001916114e4565b820191906000526020600020905b8154815290600101906020018083116114c757829003601f168201915b505050505090506107c2565b60006114fa611a32565b9050600081511161151a5760405180602001604052806000815250611545565b8061152484611a41565b604051602001611535929190612822565b6040516020818303038152906040525b9392505050565b60118054610af6906131a1565b611561611744565b6001600160a01b0316611572611298565b6001600160a01b0316146115985760405162461bcd60e51b815260040161088090612e41565b6014805462ff0000198116620100009182900460ff1615909102179055565b6001600160a01b03918216600090815260056020908152604080832093909416825291909152205460ff1690565b6115ed611744565b6001600160a01b03166115fe611298565b6001600160a01b0316146116245760405162461bcd60e51b815260040161088090612e41565b6014805460ff19811660ff90911615179055565b600061166e858585604051602001611652939291906128a2565b6040516020818303038152906040528051906020012083611b5c565b90505b949350505050565b611681611744565b6001600160a01b0316611692611298565b6001600160a01b0316146116b85760405162461bcd60e51b815260040161088090612e41565b6001600160a01b0381166116de5760405162461bcd60e51b815260040161088090612a85565b610d10816119ad565b60006001600160e01b031982166380ac58cd60e01b148061171857506001600160e01b03198216635b5e139f60e01b145b806107bf57506107bf82611b78565b6000908152600260205260409020546001600160a01b0316151590565b3390565b6001600160a01b0382166000908152600f6020526040812080549161176c836131dc565b919050555061177b6010611b91565b610ea88282611b9a565b600081815260046020526040902080546001600160a01b0319166001600160a01b03841690811790915581906117ba82610fee565b6001600160a01b03167f8c5be1e5ebec7d5bd14f71427d1e84f3dd0314c0f7b2291e5b200ac8c7c3b92560405160405180910390a45050565b60006117fe82611727565b61181a5760405162461bcd60e51b815260040161088090612c12565b600061182583610fee565b9050806001600160a01b0316846001600160a01b031614806118605750836001600160a01b031661185584610859565b6001600160a01b0316145b80611671575061167181856115b7565b826001600160a01b031661188382610fee565b6001600160a01b0316146118a95760405162461bcd60e51b815260040161088090612e76565b6001600160a01b0382166118cf5760405162461bcd60e51b815260040161088090612b32565b6118da838383611bb4565b6118e5600082611785565b6001600160a01b038316600090815260036020526040812080546001929061190e90849061315e565b90915550506001600160a01b038216600090815260036020526040812080546001929061193c908490613113565b909155505060008181526002602052604080822080546001600160a01b0319166001600160a01b0386811691821790925591518493918716917fddf252ad1be2c89b69c2b068fc378daa952ba7f163c4a11628f55a4df523b3ef91a4505050565b6000611545828461313f565b5490565b600a80546001600160a01b038381166001600160a01b0319831681179093556040519116919082907f8be0079c531659141344cd1fd0a4f28419497f9722a3daafe3b4186f6b6457e090600090a35050565b611a0a848484611870565b611a1684848484611c3d565b6114155760405162461bcd60e51b815260040161088090612a33565b6060601180546107d6906131a1565b606081611a6657506040805180820190915260018152600360fc1b60208201526107c2565b8160005b8115611a905780611a7a816131dc565b9150611a899050600a8361312b565b9150611a6a565b60008167ffffffffffffffff811115611ab957634e487b7160e01b600052604160045260246000fd5b6040519080825280601f01601f191660200182016040528015611ae3576020820181803683370190505b5090505b841561167157611af860018361315e565b9150611b05600a86613217565b611b10906030613113565b60f81b818381518110611b3357634e487b7160e01b600052603260045260246000fd5b60200101906001600160f81b031916908160001a905350611b55600a8661312b565b9450611ae7565b6000806000611b6b8585611d55565b91509150610df381611dc5565b6001600160e01b031981166301ffc9a760e01b14919050565b80546001019055565b610ea8828260405180602001604052806000815250611ef2565b611bbf838383610ae4565b6001600160a01b038316611bdb57611bd681611f25565b611bfe565b816001600160a01b0316836001600160a01b031614611bfe57611bfe8382611f69565b6001600160a01b038216611c1a57611c1581612006565b610ae4565b826001600160a01b0316826001600160a01b031614610ae457610ae482826120df565b6000611c51846001600160a01b0316612123565b15611d4d57836001600160a01b031663150b7a02611c6d611744565b8786866040518563ffffffff1660e01b8152600401611c8f9493929190612865565b602060405180830381600087803b158015611ca957600080fd5b505af1925050508015611cd9575060408051601f3d908101601f19168201909252611cd69181019061272e565b60015b611d33573d808015611d07576040519150601f19603f3d011682016040523d82523d6000602084013e611d0c565b606091505b508051611d2b5760405162461bcd60e51b815260040161088090612a33565b805181602001fd5b6001600160e01b031916630a85bd0160e11b149050611671565b506001611671565b600080825160411415611d8c5760208301516040840151606085015160001a611d8087828585612132565b94509450505050611dbe565b825160401415611db65760208301516040840151611dab868383612212565b935093505050611dbe565b506000905060025b9250929050565b6000816004811115611de757634e487b7160e01b600052602160045260246000fd5b1415611df257610d10565b6001816004811115611e1457634e487b7160e01b600052602160045260246000fd5b1415611e325760405162461bcd60e51b815260040161088090612943565b6002816004811115611e5457634e487b7160e01b600052602160045260246000fd5b1415611e725760405162461bcd60e51b81526004016108809061297a565b6003816004811115611e9457634e487b7160e01b600052602160045260246000fd5b1415611eb25760405162461bcd60e51b815260040161088090612bad565b6004816004811115611ed457634e487b7160e01b600052602160045260246000fd5b1415610d105760405162461bcd60e51b815260040161088090612d7e565b611efc838361224b565b611f096000848484611c3d565b610ae45760405162461bcd60e51b815260040161088090612a33565b600880546000838152600960205260408120829055600182018355919091527ff3f7a9fe364faab93b216da50a3214154f22a0a2b415b23a84c8169e8b636ee30155565b60006001611f7684611196565b611f80919061315e565b600083815260076020526040902054909150808214611fd3576001600160a01b03841660009081526006602090815260408083208584528252808320548484528184208190558352600790915290208190555b5060009182526007602090815260408084208490556001600160a01b039094168352600681528383209183525290812055565b6008546000906120189060019061315e565b6000838152600960205260408120546008805493945090928490811061204e57634e487b7160e01b600052603260045260246000fd5b90600052602060002001549050806008838154811061207d57634e487b7160e01b600052603260045260246000fd5b60009182526020808320909101929092558281526009909152604080822084905585825281205560088054806120c357634e487b7160e01b600052603160045260246000fd5b6001900381819060005260206000200160009055905550505050565b60006120ea83611196565b6001600160a01b039093166000908152600660209081526040808320868452825280832085905593825260079052919091209190915550565b6001600160a01b03163b151590565b6000807f7fffffffffffffffffffffffffffffff5d576e7357a4501ddfe92f46681b20a08311156121695750600090506003612209565b8460ff16601b1415801561218157508460ff16601c14155b156121925750600090506004612209565b6000600187878787604051600081526020016040526040516121b79493929190612912565b6020604051602081039080840390855afa1580156121d9573d6000803e3d6000fd5b5050604051601f1901519150506001600160a01b03811661220257600060019250925050612209565b9150600090505b94509492505050565b6000806001600160ff1b0383168161222f60ff86901c601b613113565b905061223d87828885612132565b935093505050935093915050565b6001600160a01b0382166122715760405162461bcd60e51b815260040161088090612dc0565b61227a81611727565b156122975760405162461bcd60e51b815260040161088090612acb565b6122a360008383611bb4565b6001600160a01b03821660009081526003602052604081208054600192906122cc908490613113565b909155505060008181526002602052604080822080546001600160a01b0319166001600160a01b03861690811790915590518392907fddf252ad1be2c89b69c2b068fc378daa952ba7f163c4a11628f55a4df523b3ef908290a45050565b828054612336906131a1565b90600052602060002090601f016020900481019282612358576000855561239e565b82601f1061237157805160ff191683800117855561239e565b8280016001018555821561239e579182015b8281111561239e578251825591602001919060010190612383565b506123aa9291506123ae565b5090565b5b808211156123aa57600081556001016123af565b600067ffffffffffffffff8311156123dd576123dd613257565b6123f0601f8401601f19166020016130be565b905082815283838301111561240457600080fd5b828260208301376000602084830101529392505050565b80356001600160a01b03811681146107c257600080fd5b600082601f830112612442578081fd5b81356020612457612452836130ef565b6130be565b8281528181019085830183850287018401881015612473578586fd5b855b8581101561249157813584529284019290840190600101612475565b5090979650505050505050565b600082601f8301126124ae578081fd5b611545838335602085016123c3565b6000602082840312156124ce578081fd5b6115458261241b565b600080604083850312156124e9578081fd5b6124f28361241b565b91506125006020840161241b565b90509250929050565b60008060006060848603121561251d578081fd5b6125268461241b565b92506125346020850161241b565b9150604084013590509250925092565b60008060008060808587031215612559578081fd5b6125628561241b565b93506125706020860161241b565b925060408501359150606085013567ffffffffffffffff811115612592578182fd5b61259e8782880161249e565b91505092959194509250565b600080604083850312156125bc578182fd5b6125c58361241b565b9150602083013580151581146125d9578182fd5b809150509250929050565b600080604083850312156125f6578182fd5b6125ff8361241b565b946020939093013593505050565b60008060008060808587031215612622578384fd5b61262b8561241b565b93506020850135925060408501359150606085013567ffffffffffffffff811115612592578182fd5b60008060408385031215612666578182fd5b823567ffffffffffffffff8082111561267d578384fd5b818501915085601f830112612690578384fd5b813560206126a0612452836130ef565b82815281810190858301838502870184018b10156126bc578889fd5b8896505b848710156126e5576126d18161241b565b8352600196909601959183019183016126c0565b50965050860135925050808211156126fb578283fd5b5061270885828601612432565b9150509250929050565b600060208284031215612723578081fd5b81356115458161326d565b60006020828403121561273f578081fd5b81516115458161326d565b60006020828403121561275b578081fd5b813567ffffffffffffffff811115612771578182fd5b8201601f81018413612781578182fd5b611671848235602084016123c3565b6000602082840312156127a1578081fd5b5035919050565b6000806000606084860312156127bc578081fd5b8335925060208401359150604084013567ffffffffffffffff8111156127e0578182fd5b6127ec8682870161249e565b9150509250925092565b6000815180845261280e816020860160208601613175565b601f01601f19169290920160200192915050565b60008351612834818460208801613175565b835190830190612848818360208801613175565b01949350505050565b6001600160a01b0391909116815260200190565b6001600160a01b0385811682528416602082015260408101839052608060608201819052600090612898908301846127f6565b9695505050505050565b6001600160a01b039390931683526020830191909152604082015260600190565b6020808252825182820181905260009190848201906040850190845b818110156128fb578351835292840192918401916001016128df565b50909695505050505050565b901515815260200190565b93845260ff9290921660208401526040830152606082015260800190565b60006020825261154560208301846127f6565b60208082526018908201527f45434453413a20696e76616c6964207369676e61747572650000000000000000604082015260600190565b6020808252601f908201527f45434453413a20696e76616c6964207369676e6174757265206c656e67746800604082015260600190565b6020808252601f908201527f45786365656465642073616c6520616c6c6f77656420627579206c696d697400604082015260600190565b6020808252602b908201527f455243373231456e756d657261626c653a206f776e657220696e646578206f7560408201526a74206f6620626f756e647360a81b606082015260800190565b60208082526032908201527f4552433732313a207472616e7366657220746f206e6f6e20455243373231526560408201527131b2b4bb32b91034b6b83632b6b2b73a32b960711b606082015260800190565b60208082526026908201527f4f776e61626c653a206e6577206f776e657220697320746865207a65726f206160408201526564647265737360d01b606082015260800190565b6020808252601c908201527f4552433732313a20746f6b656e20616c7265616479206d696e74656400000000604082015260600190565b60208082526016908201527520b4b9323937b81034b9903737ba1030b1ba34bb329760511b604082015260600190565b60208082526024908201527f4552433732313a207472616e7366657220746f20746865207a65726f206164646040820152637265737360e01b606082015260800190565b60208082526019908201527f4552433732313a20617070726f766520746f2063616c6c657200000000000000604082015260600190565b60208082526022908201527f45434453413a20696e76616c6964207369676e6174757265202773272076616c604082015261756560f01b606082015260800190565b60208082526009908201526813585e081b1a5b5a5d60ba1b604082015260600190565b6020808252602c908201527f4552433732313a206f70657261746f7220717565727920666f72206e6f6e657860408201526b34b9ba32b73a103a37b5b2b760a11b606082015260800190565b602080825260169082015275139bdd08185d5d1a1bdc9a5e9959081d1bc81b5a5b9d60521b604082015260600190565b60208082526038908201527f4552433732313a20617070726f76652063616c6c6572206973206e6f74206f7760408201527f6e6572206e6f7220617070726f76656420666f7220616c6c0000000000000000606082015260800190565b6020808252602a908201527f4552433732313a2062616c616e636520717565727920666f7220746865207a65604082015269726f206164647265737360b01b606082015260800190565b60208082526029908201527f4552433732313a206f776e657220717565727920666f72206e6f6e657869737460408201526832b73a103a37b5b2b760b91b606082015260800190565b60208082526022908201527f45434453413a20696e76616c6964207369676e6174757265202776272076616c604082015261756560f01b606082015260800190565b6020808252818101527f4552433732313a206d696e7420746f20746865207a65726f2061646472657373604082015260600190565b6020808252602c908201527f4552433732313a20617070726f76656420717565727920666f72206e6f6e657860408201526b34b9ba32b73a103a37b5b2b760a11b606082015260800190565b6020808252818101527f4f776e61626c653a2063616c6c6572206973206e6f7420746865206f776e6572604082015260600190565b60208082526029908201527f4552433732313a207472616e73666572206f6620746f6b656e2074686174206960408201526839903737ba1037bbb760b91b606082015260800190565b60208082526016908201527520b4b9323937b81034b99030b1ba34bb32903cb2ba1760511b604082015260600190565b6020808252602f908201527f4552433732314d657461646174613a2055524920717565727920666f72206e6f60408201526e3732bc34b9ba32b73a103a37b5b2b760891b606082015260800190565b60208082526019908201527f53616c6520686173206e6f742073746172746564207965742e00000000000000604082015260600190565b60208082526011908201527056616c75652062656c6f7720707269636560781b604082015260600190565b60208082526021908201527f4552433732313a20617070726f76616c20746f2063757272656e74206f776e656040820152603960f91b606082015260800190565b60208082526017908201527f4e6f7420617574686f72697a656420746f20636c61696d000000000000000000604082015260600190565b60208082526031908201527f4552433732313a207472616e736665722063616c6c6572206973206e6f74206f6040820152701ddb995c881b9bdc88185c1c1c9bdd9959607a1b606082015260800190565b6020808252602c908201527f455243373231456e756d657261626c653a20676c6f62616c20696e646578206f60408201526b7574206f6620626f756e647360a01b606082015260800190565b90815260200190565b604051601f8201601f1916810167ffffffffffffffff811182821017156130e7576130e7613257565b604052919050565b600067ffffffffffffffff82111561310957613109613257565b5060209081020190565b600082198211156131265761312661322b565b500190565b60008261313a5761313a613241565b500490565b60008160001904831182151516156131595761315961322b565b500290565b6000828210156131705761317061322b565b500390565b60005b83811015613190578181015183820152602001613178565b838111156114155750506000910152565b6002810460018216806131b557607f821691505b602082108114156131d657634e487b7160e01b600052602260045260246000fd5b50919050565b60006000198214156131f0576131f061322b565b5060010190565b600060ff821660ff81141561320e5761320e61322b565b60010192915050565b60008261322657613226613241565b500690565b634e487b7160e01b600052601160045260246000fd5b634e487b7160e01b600052601260045260246000fd5b634e487b7160e01b600052604160045260246000fd5b6001600160e01b031981168114610d1057600080fdfea26469706673582212209fba12dae64eba805b510e1339ef36b3f84bac8db6d24747c4e5be2080274a6864736f6c63430008010033",
  "immutableReferences": {},
  "source": "// SPDX-License-Identifier: MIT\r\npragma solidity ^0.8.1;\r\n\r\nimport \"./ERC721Enumerable.sol\";\r\nimport \"@openzeppelin/contracts/access/Ownable.sol\";\r\nimport \"@openzeppelin/contracts/utils/math/SafeMath.sol\";\r\nimport \"@openzeppelin/contracts/utils/Counters.sol\";\r\nimport \"@openzeppelin/contracts/utils/cryptography/ECDSA.sol\";\r\n\r\n// @author: Araya\r\n\r\n///////////////////////////////////////////////////////////////////////////////////////////////////////////////////////////////////////////\r\n//                                                                                                                                       //\r\n//                                                                                                                                       //\r\n// oooooooooo.  ooooo          .oooooo.     .oooooo.   oooo    oooo ooooo   ooooo oooooooooooo       .o.       oooooooooo.    .oooooo..o //\r\n// `888'   `Y8b `888'         d8P'  `Y8b   d8P'  `Y8b  `888   .8P'  `888'   `888' `888'     `8      .888.      `888'   `Y8b  d8P'    `Y8 //\r\n//  888     888  888         888      888 888           888  d8'     888     888   888             .8\"888.      888      888 Y88bo.      //\r\n//  888oooo888'  888         888      888 888           88888[       888ooooo888   888oooo8       .8' `888.     888      888  `\"Y8888o.  //\r\n//  888    `88b  888         888      888 888           888`88b.     888     888   888    \"      .88ooo8888.    888      888      `\"Y88b //\r\n//  888    .88P  888       o `88b    d88' `88b    ooo   888  `88b.   888     888   888       o  .8'     `888.   888     d88' oo     .d8P //\r\n// o888bood8P'  o888ooooood8  `Y8bood8P'   `Y8bood8P'  o888o  o888o o888o   o888o o888ooooood8 o88o     o8888o o888bood8P'   8\"\"88888P'  //\r\n//                                                                                                                                       //\r\n//                                                                                                                                       //\r\n///////////////////////////////////////////////////////////////////////////////////////////////////////////////////////////////////////////\r\n\r\ncontract BlockHeads is ERC721Enumerable, Ownable {\r\n    using SafeMath for uint256;\r\n    using Counters for Counters.Counter;\r\n    using Strings for uint256;\r\n\r\n    uint256 public MAX_ELEMENTS = 9999;\r\n    uint256 public PRICE = 0.15 ether;\r\n\r\n    uint256 public saleTransLimit = 20; // Sale limit per transaction\r\n    uint256 public mintLimit = 20; // mint limit per Wallet\r\n    mapping(address => uint256) public mintListPurchases;\r\n\r\n    Counters.Counter private _tokenIdTracker;\r\n\r\n    string public baseTokenURI;\r\n\r\n    bool public META_REVEAL = true;\r\n    string public sampleTokenURI;\r\n\r\n    bool public isAirdropStarted = false;\r\n    bool public isPresaleStarted = false;\r\n    bool public isPublicsaleStarted = false;\r\n\r\n    constructor(string memory baseURI) ERC721(\"BLOCKHEADS\", \"BLOCKHEADS\") {\r\n        setBaseURI(baseURI);\r\n    }\r\n\r\n    function _baseURI() internal view virtual override returns (string memory) {\r\n        return baseTokenURI;\r\n    }\r\n\r\n    function totalToken() public view returns (uint256) {\r\n        return _tokenIdTracker.current();\r\n    }\r\n\r\n    function tokenURI(uint256 tokenId)\r\n        public\r\n        view\r\n        virtual\r\n        override\r\n        returns (string memory)\r\n    {\r\n        require(\r\n            _exists(tokenId),\r\n            \"ERC721Metadata: URI query for nonexistent token\"\r\n        );\r\n\r\n        if (!META_REVEAL) return sampleTokenURI;\r\n\r\n        string memory baseURI = _baseURI();\r\n        return\r\n            bytes(baseURI).length > 0\r\n                ? string(abi.encodePacked(baseURI, tokenId.toString()))\r\n                : \"\";\r\n    }\r\n\r\n    function mint(\r\n        uint256 _tokenAmount,\r\n        uint256 _timestamp,\r\n        bytes memory _signature\r\n    ) public payable {\r\n        require(\r\n            isPresaleStarted || isPublicsaleStarted,\r\n            \"Sale has not started yet.\"\r\n        );\r\n        require(!isAirdropStarted, \"Airdrop is active yet.\");\r\n        uint256 total = totalToken();\r\n        require(_tokenAmount <= saleTransLimit, \"Max limit\");\r\n        require(total + _tokenAmount <= MAX_ELEMENTS, \"Max limit\");\r\n        require(msg.value >= price(_tokenAmount), \"Value below price\");\r\n        require(\r\n            mintListPurchases[msg.sender] + _tokenAmount <= mintLimit,\r\n            \"Exceeded sale allowed buy limit\"\r\n        );\r\n\r\n        address wallet = _msgSender();\r\n        address signerOwner = signatureWallet(\r\n            wallet,\r\n            _tokenAmount,\r\n            _timestamp,\r\n            _signature\r\n        );\r\n        require(signerOwner == owner(), \"Not authorized to mint\");\r\n        for (uint8 i = 1; i <= _tokenAmount; i++) {\r\n            _mintAnElement(wallet, total + i);\r\n        }\r\n    }\r\n\r\n    function claim(\r\n        uint256 _tokenAmount,\r\n        uint256 _timestamp,\r\n        bytes memory _signature\r\n    ) public {\r\n        require(isAirdropStarted, \"Airdrop is not active.\");\r\n        uint256 total = totalToken();\r\n        require(total + _tokenAmount <= MAX_ELEMENTS, \"Max limit\");\r\n\r\n        address wallet = _msgSender();\r\n\r\n        address signerOwner = signatureWallet(\r\n            wallet,\r\n            _tokenAmount,\r\n            _timestamp,\r\n            _signature\r\n        );\r\n        require(signerOwner == owner(), \"Not authorized to claim\");\r\n\r\n        for (uint8 i = 1; i <= _tokenAmount; i++) {\r\n            _mintAnElement(wallet, total + i);\r\n        }\r\n    }\r\n\r\n    function signatureWallet(\r\n        address wallet,\r\n        uint256 _tokenAmount,\r\n        uint256 _timestamp,\r\n        bytes memory _signature\r\n    ) public pure returns (address) {\r\n        return\r\n            ECDSA.recover(\r\n                keccak256(abi.encode(wallet, _tokenAmount, _timestamp)),\r\n                _signature\r\n            );\r\n    }\r\n\r\n    function _mintAnElement(address _to, uint256 _tokenId) private {\r\n        mintListPurchases[_to]++;\r\n        _tokenIdTracker.increment();\r\n        _safeMint(_to, _tokenId);\r\n    }\r\n\r\n    function price(uint256 _count) public view returns (uint256) {\r\n        return PRICE.mul(_count);\r\n    }\r\n\r\n    function walletOfOwner(address _owner)\r\n        external\r\n        view\r\n        returns (uint256[] memory)\r\n    {\r\n        uint256 tokenCount = balanceOf(_owner);\r\n\r\n        uint256[] memory tokensId = new uint256[](tokenCount);\r\n        for (uint256 i = 0; i < tokenCount; i++) {\r\n            tokensId[i] = tokenOfOwnerByIndex(_owner, i);\r\n        }\r\n\r\n        return tokensId;\r\n    }\r\n\r\n    /**\r\n     *                 \r\n     *                          \r\n     *                   \r\n     *                       \r\n     *                 \r\n     * This section will have all the internals set to onlyOwner\r\n     */\r\n\r\n    function setBaseURI(string memory baseURI) public onlyOwner {\r\n        baseTokenURI = baseURI;\r\n    }\r\n\r\n    function setSampleURI(string memory sampleURI) public onlyOwner {\r\n        sampleTokenURI = sampleURI;\r\n    }\r\n\r\n    function setPrice(uint256 _price) public onlyOwner {\r\n        PRICE = _price;\r\n    }\r\n\r\n    function toggleReveal() public onlyOwner {\r\n        META_REVEAL = !META_REVEAL;\r\n    }\r\n\r\n    function togglePresale() public onlyOwner {\r\n        isPresaleStarted = !isPresaleStarted;\r\n    }\r\n\r\n    function togglePublicSale() public onlyOwner {\r\n        isPublicsaleStarted = !isPublicsaleStarted;\r\n    }\r\n\r\n    function toggleAirdropStatus() public onlyOwner {\r\n        isAirdropStarted = !isAirdropStarted;\r\n    }\r\n\r\n    function withdraw() public onlyOwner {\r\n        payable(owner()).transfer(address(this).balance);\r\n    }\r\n\r\n    function giftMint(address[] memory _addrs, uint256[] memory _tokenAmounts)\r\n        public\r\n        onlyOwner\r\n    {\r\n        uint256 totalQuantity = 0;\r\n        uint256 total = totalToken();\r\n        for (uint256 i = 0; i < _addrs.length; i++) {\r\n            totalQuantity += _tokenAmounts[i];\r\n        }\r\n        require(total + totalQuantity <= MAX_ELEMENTS, \"Max limit\");\r\n        for (uint256 i = 0; i < _addrs.length; i++) {\r\n            for (uint256 j = 0; j < _tokenAmounts[i]; j++) {\r\n                total++;\r\n                _mintAnElement(_addrs[i], total);\r\n            }\r\n        }\r\n    }\r\n}\r\n",
  "sourcePath": "C:\\blockworldpvp\\Blockworldpvp\\contracts\\BlockHeads.sol",
  "compiler": {
    "name": "solc",
    "version": "0.8.1+commit.df193b15.Emscripten.clang"
  },
  "schemaVersion": "3.4.4",
  "updatedAt": "2022-03-10T01:39:46.470Z",
  "networkType": "ethereum",
  "devdoc": {
    "kind": "dev",
    "methods": {
      "approve(address,uint256)": {
        "details": "See {IERC721-approve}."
      },
      "balanceOf(address)": {
        "details": "See {IERC721-balanceOf}."
      },
      "getApproved(uint256)": {
        "details": "See {IERC721-getApproved}."
      },
      "isApprovedForAll(address,address)": {
        "details": "See {IERC721-isApprovedForAll}."
      },
      "name()": {
        "details": "See {IERC721Metadata-name}."
      },
      "owner()": {
        "details": "Returns the address of the current owner."
      },
      "ownerOf(uint256)": {
        "details": "See {IERC721-ownerOf}."
      },
      "rawOwnerOf(uint256)": {
        "details": "Edit for rawOwnerOf token"
      },
      "renounceOwnership()": {
        "details": "Leaves the contract without owner. It will not be possible to call `onlyOwner` functions anymore. Can only be called by the current owner. NOTE: Renouncing ownership will leave the contract without an owner, thereby removing any functionality that is only available to the owner."
      },
      "safeTransferFrom(address,address,uint256)": {
        "details": "See {IERC721-safeTransferFrom}."
      },
      "safeTransferFrom(address,address,uint256,bytes)": {
        "details": "See {IERC721-safeTransferFrom}."
      },
      "setApprovalForAll(address,bool)": {
        "details": "See {IERC721-setApprovalForAll}."
      },
      "supportsInterface(bytes4)": {
        "details": "See {IERC165-supportsInterface}."
      },
      "symbol()": {
        "details": "See {IERC721Metadata-symbol}."
      },
      "tokenByIndex(uint256)": {
        "details": "See {IERC721Enumerable-tokenByIndex}."
      },
      "tokenOfOwnerByIndex(address,uint256)": {
        "details": "See {IERC721Enumerable-tokenOfOwnerByIndex}."
      },
      "tokenURI(uint256)": {
        "details": "See {IERC721Metadata-tokenURI}."
      },
      "totalSupply()": {
        "details": "See {IERC721Enumerable-totalSupply}."
      },
      "transferFrom(address,address,uint256)": {
        "details": "See {IERC721-transferFrom}."
      },
      "transferOwnership(address)": {
        "details": "Transfers ownership of the contract to a new account (`newOwner`). Can only be called by the current owner."
      }
    },
    "version": 1
  },
  "userdoc": {
    "kind": "user",
    "methods": {
      "setBaseURI(string)": {
        "notice": "                                                                                                    This section will have all the internals set to onlyOwner"
      }
    },
    "version": 1
  }
}